:020000021000EC
:10000000E03F082093010100FB000100E100010036
:10001000090101001901010029010100000000008F
:1000200000000000000000000000000091AE010090
:10003000390101000000000001AF01005901010079
:10004000EDB40100EDB40100EDB40100EDB4010028
:10005000EDB40100EDB40100EDB40100EDB4010018
:10006000EDB40100EDB40100EDB40100EDB4010008
:10007000EDB40100EDB40100EDB40100EDB40100F8
:10008000EDB40100EDB40100EDB40100EDB40100E8
:10009000EDB40100EDB40100EDB40100EDB40100D8
:1000A000EDB40100EDB40100EDB40100EDB40100C8
:1000B000EDB40100EDB40100EDB40100EDB40100B8
:1000C000EDB40100EDB40100EDB40100A86502003B
:1000D00000C00720B8010000B8C107209404000048
:1000E00004207146084203D0EFF309800BF01CBADC
:1000F000EFF308800BF018BA704708B5014807F015
:10010000D9FDFEE73E5F020008B5024807F0D2FDC8
:10011000FEE700BF495F020008B5024807F0CAFDCC
:10012000FEE700BF545F020008B5024807F0C2FDB9
:10013000FEE700BF5F5F020008B5024807F0BAFDA6
:10014000FEE700BF6C5F020008B5024807F0B2FD91
:10015000FEE700BF7A5F020008B50AF051FE0AF020
:10016000F7FEBDE808400AF05FBE0B4610B55C1A0A
:10017000944204D2441AE45843F8044BF7E710BD04
:1001800003461A1A8A4203D2002243F8042BF8E7E6
:10019000704716480AF07EFF14480AF07EFF144CA0
:1001A000144B9C4207D294E803000C3454F8042CFE
:1001B000FFF7DBFFF4E7104B9C4206D254F8080B24
:1001C00054F8041CFFF7DCFFF5E70DF04FF90AF0D7
:1001D0007BFF01F0CBFD02F0BEFE4FF416400BF0AA
:1001E000C1FA064807F066FDFEE700BFE03F0820C1
:1001F000CC000100D8000100E00001008E5F020089
:10020000144A70B51368014613B94FF08053136058
:100210001068114B4518114E2B44B34298BF104B38
:100220000C4C96BFC81825602060126898BF18460D
:100230000C4B9A4281BF0C4A064B00201A6039B120
:100240000A4A136801331360094B1860094B19609F
:1002500070BD00BFBCC10720FF7FFFEFFE3F07104E
:100260004CC60720FF3F082000400820C4C10720DB
:10027000B8C10720C0C107200DF014BA0DF01ABA9A
:100280000DF018BA10B504468AB068460DF0B6FCF9
:10029000204A214B2260089A2049A260079A626096
:1002A00052B90A681E4882428ABF02F1604202F1D6
:1002B0007042A2F5E82262606268B2F5803F82BFB8
:1002C00002F17042A2F5E82262600022E2600A6850
:1002D00013498A4205D8C3F1405303F50C239B1AF6
:1002E00009E010498A4207D8C3F1804303F580131F
:1002F0009B1A002B00DDE36020460B4BE2611B687C
:10030000A3610A4B1B686361094B1B6823610AB038
:1003100010BD00BF4C0600004CC60720BCC1072022
:1003200000800010FF3F0820B8C10720C0C107208F
:10033000C4C10720FEE70000014B1860704700BFF2
:10034000CCC10720014B1860704700BFC8C107200F
:1003500008B502480EF0E4FBFEE700BF3C360200A1
:1003600008B502480EF0DCFBFEE700BF563602007F
:100370000020704701207047F8B5084B16461A68F0
:100380000F461C4642B10D46EB1BB34204DA23680C
:1003900015F8010B9847F7E73046F8BDCCC10720A8
:1003A000F8B5094B0F46186816461C4658B10D465D
:1003B000EB1BB34205DA23680020984705F8010BD0
:1003C000F6E726EAE670F8BDC8C1072070470020AE
:1003D00070470000074B1B689A68824207D05A6832
:1003E000824204D0DB681B1A5842584170470120F2
:1003F000704700BF3CC107200020704700207047B5
:1004000030B504468DB0A8B3684608F0E1FD9DF80C
:100410000030002503F03F0303939DF8013003A84B
:1004200003F03F0304939DF802300B9503F01F0384
:1004300005939DF8043003F01F0306939DF80530E3
:1004400003F00F03013B0793BDF80630C3F30B0322
:10045000A3F26C7308939DF8033003F0070309932C
:10046000BDF80830C3F30B03013B0A930DF04CFABF
:1004700084E8210000200DB030BD000070B50F4DA4
:100480000F4E2C6814F0010415D128460BF030FAF9
:1004900088B14FF40E70FFF7EFFE302380F835324D
:1004A0003A2380F8344280F8363280F837423060A0
:1004B00028460BF029FA306870BD00BFECC1072058
:1004C000D4C1072070B50F4D0F4E2B6813F00104F7
:1004D00016D128460BF00CFA90B14FF40E70FFF7CE
:1004E000CBFE012380F83432312380F835323A23B1
:1004F00080F8363280F83742306028460BF004FA34
:10050000306870BDE8C10720D0C107202DE9F04751
:10051000ADF51A7D0F4608F02EF8041E04DD0AF032
:1005200037FC20460AF07AF90DF1140844462B4DA9
:100530000FCD0FC42B68102123600DEB01020024A6
:100540000AA804940AF02CFB25498146254A38461E
:1005500008F0CEFF26460AAD4FF0000ACA451ED06D
:100560006B69A34217D1AA69049B164423B1642185
:10057000B3FBF1F3B2FBF3F395F80CE00094298C94
:100580000293890001910392384617496A6858F826
:100590002E3008F0ADFF0AF1010A2435DEE7013400
:1005A0000A2CD8D1049B64229E1BB3FBF2F30F49A3
:1005B0000F4AB6FBF3F30096384608F099FF0AF0AD
:1005C00013F8102804D938460A49102208F090FF81
:1005D00001200DF51A7DBDE8F08700BF70360200DE
:1005E0008F360200B6360200BB360200D836020053
:1005F000F73602000237020010B50C46ADF5007D5B
:1006000068460AF0F9FE204669464FF0FF3208F0CE
:1006100039FF01200DF5007D10BD000030B50C46FE
:1006200091B02C49054607F0B2FE002847D008AB30
:10063000009309AB01930AAB02930BAB03930CAB92
:1006400004932846244906AA07AB07F008FE0728AA
:1006500001D000203BE09DF83930069A0DA862F3E6
:1006600003038DF83930079A9DF8383062F304039C
:100670008DF83830089ABDF83A3062F30B03ADF8C4
:100680003A30099A9DF8363062F304038DF836301B
:100690000A9A9DF8353062F305038DF835300B9AD0
:1006A0009DF8343062F305038DF834300C9A9DF8D0
:1006B000373062F302038DF8373008F0B1FC08F0F0
:1006C0004BFD06490246204608F012FF012011B0FA
:1006D00030BD00BF2C3702003037020072570200D5
:1006E000F7B50D464E49044607F041FF064640B1B6
:1006F00007F076F928464B494FF0FF3208F0C2FE6A
:100700008BE02046484907F032FF60B307F08CF9D0
:1007100046490246284608F0EBFE07F091F94449A5
:100720000246284608F0E4FE07F084F941490246F3
:10073000284608F0DDFE304607F06CF90646012039
:1007400007F068F90446022007F064F90746032021
:1007500007F060F900970190374928463246234652
:1007600008F0C6FE59E02046344907F010FE50B1AB
:1007700001212022204607F0A8FE204607F0F9FEBE
:1007800007F078FA49E020462D4907F000FE0646BA
:1007900020B920462B4907F0FAFD60B320462A49CC
:1007A00007F0E3FD60B92046284907F0DEFD28B9CF
:1007B0002046274907F0D9FD044602E0032400E063
:1007C00002242046314607F0ABF9224A224B002E84
:1007D00018BF1A463CB1012C07D01C491A4B022CF9
:1007E00018BF0B4602E01D4B00E0194B28461C4980
:1007F00008F07EFE11E0204607F0BBFE19491A4AB8
:100800000090F323012007F099F9204607F0B1FE8C
:1008100016490246284608F06BFE012003B0F0BDE1
:100820006B370200713702008A37020091370200ED
:10083000A6370200BB370200DA3702000A3802008E
:100840000E380200163802006637020060370200D8
:100850006A49020051370200493702005A37020044
:100860001F38020038380200843602006B3802005C
:1008700030B589B004AB002400930D46022219491B
:1008800003AB0394049407F0F8FC022827D107ABCC
:10089000009305AA0398049906AB0594069407945F
:1008A00003F0D4FD024638B1049B284600930E495C
:1008B000039B08F01DFE10E0059A069B002A079C8A
:1008C00008BF0122002B08BF012328460749B4FBBB
:1008D000F2F2B4FBF3F308F00BFE012000E0204637
:1008E00009B030BD02490200793802009838020090
:1008F0002DE9F0470D46ADF5856D3B49064607F0FD
:10090000D0FD3A498146304607F0F4FD374930467C
:1009100007F010FE304607F02CFE0122014681A8A8
:1009200005F0B4FD044640B1304607F022FE3049E0
:100930000246284608F0DCFD50E00DF1040A21468D
:100940004FF4007250460CF001FF00940AF040FD95
:10095000A04606460F4681A851464FF400726B46EA
:1009600005F02DFE08B9009B33BB81A805F0FFFF01
:10097000B9F1000F19D00AF02BFD4FF47A72002361
:100980000CF0A4F9002304464FF47A72304639463D
:100990000CF09CF9201A14BF034601232846154980
:1009A0004246B8FBF3F308F0A3FD284612494FF086
:1009B000FF3208F067FD11E09844B9F1000FCAD189
:1009C0004C46009B9C42C6D22B681AF804105B6808
:1009D00028464FF0FF3298470134F2E701200DF529
:1009E000856DBDE8F08700BFC638020002490200ED
:1009F000CF380200E3380200713E02002DE9F047D3
:100A00000023BEB00C46554905460C9307F0AFFDD8
:100A100020B9284607F0ADFD064600E0504E15A867
:100A2000314606F05CF8054620462DB14D49324668
:100A30002B4608F05DFD8CE04B49324608F058FD2E
:100A4000A8461EAF802315A80DA91397149306F08E
:100A50008AF8002865D19DF83D30002B61D09DF8C3
:100A60003C10DDF834C011F0100F09BF0C9B44227C
:100A700063440C930ABF2D22013508F1010811F0DF
:100A8000010F14BF52232D2311F0020F14BF4FF09A
:100A9000480A4FF02D0A11F0040F14BF4FF053090C
:100AA0004FF02D0911F0200FBDF8381014BF4FF092
:100AB000410E4FF02D0ECDF808E04FEA612EBDF843
:100AC0003A000EF2BC7ECDF80CE0C1F3431E01F0FB
:100AD0001F010591C1120691C0F345100DF13D01B2
:100AE000CDF810E0CDF820C007900991CDF800A016
:100AF000CDF8049020461D4908F0FAFC20461C4918
:100B00004FF0FF3208F0AAFC394620464FF0FF3282
:100B100008F0A4FC204611494FF0FF3208F0B2FC67
:100B20008FE700953EAD55F8C83D12494246204634
:100B300008F0DEFC304629460BAA06F043F840B91F
:100B40000B9B20469A780C9B0B495A43520808F09D
:100B5000CFFC01203EB0BDE8F08700BF713E02002F
:100B6000FE38020001390200253902004039020036
:100B70006D390200713902009B39020070B50D46D3
:100B8000064607F0F6FC0446304607F0F2FC06F095
:100B9000DBF8064A064B0749002818BF13462846CB
:100BA000224608F0A5FC012070BD00BF5B3B02009F
:100BB000513B0200AF39020070B50D46064607F002
:100BC000D8FC0446304607F0D4FC06F060F8064A2C
:100BD000064B0749002818BF13462846224608F04E
:100BE00087FC012070BD00BF5B3B0200513B02004F
:100BF000CB3902007FB503AB002400930E460222DE
:100C00000F4902AB0294039407F037FB022814D17A
:100C1000029D039C2846214606F040F9094B0A49EB
:100C20002A4600280CBF084618460849009023466B
:100C3000304608F05DFC012000E0204604B070BDA5
:100C4000024902005B3B0200513B0200DD39020019
:100C500030B5ADF50D7D0C46054607F08AFC0A223D
:100C6000014603A805F012FC40B1284607F081FCBC
:100C70001F490246204608F03BFC35E08DF807008E
:100C800002901C4920467E2242F2107308F030FC8C
:100C90002046194908F02CFC236820461B680DF1FA
:100CA000070142F21072984718B19DF807307E2B69
:100CB00003D103A805F05BFE16E003A80DF10701C0
:100CC000012202AB05F039FD10B9029B012B02D0C5
:100CD00020460A49DEE7236820465B689DF8071036
:100CE0004FF0FF329847D7E701200DF50D7D30BD5D
:100CF000F53902001C3A0200543A0200743A02002C
:100D00002DE9F047ADF5407D002304AC236003934B
:100D10000D4600944249022203AB07F0AEFA0228C6
:100D200006D028463F494FF0FF3208F0ABFB71E098
:100D300017A8216805F0D3FE18B128463A49226861
:100D400007E017A8039905F0CAFE28B128463749DD
:100D5000039A08F0CDFB5DE040A94FF4807205A82E
:100D600007F04CFA0AA880A94FF4807207F046FAFF
:100D700020AB159317A880230FA9169305F0F3FE57
:100D8000002841D19DF84530002B3DD09DF84430DE
:100D900003F0100303F0FF06002BE9D1039A0DF1D5
:100DA000450305A8224907F02EFC22680DF14503F2
:100DB0001F490AA807F027FC05A807F0DAFB8046C0
:100DC0000AA807F0D6FB074605A8DDF83C9007F017
:100DD000D0FB82460AA807F0CCFB324601463346D8
:100DE0000096504603F032FB124A134BCDF80090A8
:100DF00000280CBF1846104610490190424628466C
:100E00003B4608F075FBB3E70AA807F00DFA05A802
:100E100007F00AFA01200DF5407DBDE8F08700BF1C
:100E2000024902009B3A0200E03A0200053B020040
:100E3000253B02005B3B0200513B02002B3B0200C2
:100E4000F8B50D462349064607F091FB04460746D0
:100E500028B1FFF737FB002100F235200AE03046C9
:100E60001D4907F084FB044650B1FFF707FB3946E4
:100E700000F235200A4606F0A1F81849184B1EE08A
:100E80003046184907F073FB044648B1FFF71AFBD8
:100E9000012200F2352105F0BBFA1349134B0EE095
:100EA0003046134907F063FB044680B1FFF7E6FACA
:100EB000012200F2352105F0ABFA0E490E4B002855
:100EC00008BF19464FF0FF32284608F0DBFA2046EB
:100ED000F8BD00BFB23B0200BC3B0200543B020025
:100EE0004A3B0200C93B0200713B0200613B020029
:100EF000D23B0200963B0200883B020008B5084640
:100F00004FF0FF32084908F0BDFA06F069FD4FF4D2
:100F1000FA6009F083FC4FF08043AA221A72002283
:100F20001A70012008BD00BFDE3B020010B5012091
:100F30000C4607F057F938B100210A460B4608F075
:100F40009BFF2046044901E0204604494FF0FF3250
:100F500008F098FA012010BDEF3B0200053C0200AA
:100F600038B5064C236833B91C20FFF785F90546D0
:100F700007F036FF2560206838BD00BFE0C10720BC
:100F80002DE9F04F0D46C7B05549814607F016FAD6
:100F900054498246484607F011FA53498346484669
:100FA00007F00CFA00270DF1100805AE0446029771
:100FB0000397C8F800703760BAF1000F45D000966B
:100FC00048464A4902AA03AB07F049F9012807DC61
:100FD000284647494FF0FF3208F054FA38467CE083
:100FE0000DF118084FF480744046394622460CF043
:100FF000ADFB336813B90123336003E0B3F5807FA1
:1010000088BF3460FFF7ACFF33689DF808109DF887
:101010000C200093434608F030FB364A364B3749E4
:10102000002808BF13462846029A08F061FA0024F7
:1010300033689C424ED2039A18F804302244284662
:101040002F4908F055FA0134F2E7BBF1000F2CD01C
:10105000CDF8008048462B4902AA03AB07F0FFF801
:10106000032807D0284628494FF0FF3208F00AFA33
:10107000504632E0FFF774FF9DF808109DF80C20F1
:1010800098F8003008F00EFB48B1039B2846009307
:101090001E49D8F80020029B08F02AFA1AE02846D8
:1010A0001B49029A08F024FA14E0A8B10223029323
:1010B000029BFE2B10DCFFF753FF9DF8081008F091
:1010C000FCFA20B128461349029A08F011FA029B53
:1010D0000233ECE7012000E0204647B0BDE8F08F86
:1010E000254A02003E3C0200443C02004D3C020006
:1010F0005C3C02005B3B0200513B02007D3C020075
:10110000A13C0200B13C0200C13C0200E83C0200EC
:10111000023D02001F3D02002DE9F04F5F4C91B0EF
:1011200023680E4633B92C20FFF7A6F8054608F0D1
:10113000EBF825602768FFF7A1F90DF1400B0024BB
:101140004BF80C4D00F2352059460CAA05F03AFD3B
:1011500048B90C9A0D9C95699378023D5C435D43B8
:1011600064086D0800E025464D4B1A6898467AB928
:101170000C20FFF781F88146FFF7F2FE902389F8F3
:1011800004300023C9F80000C9F80830C8F80090FE
:10119000D8F8000003F048F980460BF051FD824674
:1011A0000BF0AAFB014640460BF0F0FA3D490BF06C
:1011B000F7FB0BF045FD8146584609F07BFF04F034
:1011C00081F850B308F042F804F066F800230246B4
:1011D00098469B4693420DD018460B920A9304F012
:1011E000BFF80A9B584588BF98460B9A88BF83462C
:1011F0000133EFE708F042F8642303FB0BF32A4ABC
:101200003046B3FBF2F3C3F164038DE808092749C4
:1012100022462B4608F06CF905E030462449224668
:101220002B4608F065F9234C23681BB90120FFF712
:1012300023F82060206803F0AFF8044607F08CFF25
:101240009DF83930019003F00F0302939DF8383078
:10125000009403F01F030393BDF83A303046C3F304
:101260000B0304939DF83630134903F01F030593D5
:101270009DF83530524603F03F0306939DF8343015
:1012800003F03F030793BB8C0893FB8C09934B46F9
:1012900008F02EF9012011B0BDE8F08FE4C107205D
:1012A000D8C1072000002041A0860100453D020072
:1012B000793D0200DCC10720873D020070B5ADF525
:1012C0000A7D05460C4606F0C1FF0B2803DD2046CB
:1012D00023490C223DE0284607F04BF90122014644
:1012E00001A805F0D3F8064668BB01A805F03FFB4E
:1012F000284607F03EF91B490246049B204608F0A9
:10130000F7F8236820469B6898470A2009F086FA78
:101310004FF0100383F31188BFF36F8FBFF34F8F2C
:10132000284607F026F902460F4B0068516803C3B0
:1013300090680E4A186043F80C2C4FF08043AA22A4
:101340001A721E7007E0284607F013F9024620467D
:10135000074908F0CDF801200DF50A7D70BD00BFEA
:10136000043E02002B3E0200484002400DD0ADDE9C
:10137000723E0200F0B5404CA5B023680646DB077C
:101380000D460CD420460AF0B3FA40B14FF4806009
:101390000CF088F9394B186020460AF0B5FA30464F
:1013A000374907F00BF80746044610B300218022A6
:1013B00004A80CF0CBF900230293039303AB009332
:1013C000304904AA02AB304606F049FF2B4A029B83
:1013D000116804A8039A13B903F0D8F801E003F0E8
:1013E000F8F80346284A29492846002B18BF114619
:1013F00037E03046264906F0E1FF0746002838D09E
:10140000304604AB234903AA039404948DF80840A2
:1014100006F025FF039E049B3344B3F5806F0DDD7A
:1014200028461D494FF4806221E0144B9DF80820A6
:101430001B689A559DF8083001361C44039B049A9A
:10144000F31A934210DAB6F5806F0DDA2B6828464E
:101450001B6802A94FF4FA6298470028E5D1284694
:101460000E4908F045F804E0284622460C4908F0E9
:101470003FF8384625B0F0BDF4C10720F0C1072081
:101480009D3E0200A43E02008B3E0200873E020009
:10149000B43E0200BB3E0200C53E0200E93E02002F
:1014A000F93E020030B50C46054687B00A4908F0FF
:1014B0001FF8A17A62880091E17A23880191E1887E
:1014C0002846029121890391A1880491034908F0DB
:1014D0000FF807B030BD00BF0A3F0200403F0200D6
:1014E0001FB501A80C4602F063FA01F04DFF01A9F7
:1014F00002462046FFF7D6FF012004B010BD0000D1
:101500002DE9F0418CB003AB002400930E46154644
:101510003A49022202AB0294039406F0AEFEA042C6
:1015200039DD02980BF0B2FE5FFA80F8039818B12B
:101530000DF0D1FDC4B200E0044604A8002102F081
:10154000BFFD30B130462E494FF0FF3207F09AFF11
:10155000F3E7003518BF01250223009340462946D2
:10156000039A234602F046F8074638B93046254923
:101570004FF0FF3207F086FF01273BE0002D39D006
:1015800004A84FF47A7102F0A5FD70B39DF81030F5
:1015900043452AD101E027462CE09DF817300C2B5B
:1015A00004D1304606A94246FFF77CFF3046B4B965
:1015B000154907F09DFF9DF817309C420ADA336801
:1015C00004AA2244117A5B6830464FF0FF329847F4
:1015D0000134F0E730460D4907F08AFF0AE00C4974
:1015E0004FF0FF3207F04EFF04E030460949029AFF
:1015F00007F07EFF38460CB0BDE8F08102490200DA
:101600005E3F0200803F0200A83F0200F345020057
:10161000BC3F0200D93F020038B50D4606F0ABFFD3
:101620000446C0B201F0A4FE054A064B0649002854
:1016300008BF13462846224607F05AFF012038BD4E
:10164000FF3F0200513B02000640020037B50C4646
:1016500002F012F805461649204607F049FF1549E1
:1016600020462A4607F044FF2046114907F040FF74
:10167000D5B11149204607F03BFF20460C4907F041
:1016800037FF0025E8B201F0E1FF013540B1817874
:101690000278437800912046084907F029FFF1E7D6
:1016A0002046034907F024FF012003B030BD00BFEE
:1016B0001D40020038400200524002006D4002000E
:1016C00030B58BB00AAA4FF47A730C4642F8243D29
:1016D000174906F0C4FD002502A8019902F0F0FCAC
:1016E000D8B1204613499DF8082007F001FF0025D6
:1016F0009DF80F309D420ADA236802AA2A44117A23
:101700005B6820464FF0FF3298470135F0E72046EE
:10171000094907F0EDFE0125DEE72DB9204607490E
:101720004FF0FF3207F0AEFE01200BB030BD00BF1E
:10173000C23E020088400200703E02009F4002004C
:101740002DE9F3473C4C074626688946002E62D1B6
:101750002420FEF791FD0423054680E848008660BA
:10176000C660202130460DF045FAAE68E8604FEAC9
:101770008608072E0ED81020FEF77EFD8246002137
:1017800010220BF0E3FFEB68013643F808A008F1E4
:101790000408EEE7002608234FF001086B6085F887
:1017A000208028462549264A264B0096256005F0CC
:1017B00093FE20682449254A254B009605F08CFEAF
:1017C00020682449244A254B009605F085FE2068B0
:1017D0002349244A244B009605F07EFE20682349C5
:1017E000234A244B009605F077FE20682249234ABD
:1017F000234BCDF8008005F06FFE20681E49214A7A
:10180000214B009605F068FE009620681F49204A8B
:10181000204B05F061FE38461F4906F0A8FE18B1BE
:1018200038461E4906F05DFF39464A46206802B038
:10183000BDE8F04705F032BFFCC10720ED1A0100FA
:10184000B0400200B7400200C1180100F1400200A0
:10185000FA400200C11601004E410200514102004F
:1018600019160100D3460200744102004D16010012
:10187000BA4102009E41020001150100034202002C
:10188000C14102000242020007420200E1140100CD
:10189000474202002C420200713E02004D4202000B
:1018A00038B5064C236833B95820FEF7E5FC0546E9
:1018B00007F06EFB2560206838BD00BFF8C1072027
:1018C0002DE9F04F0446ADF2DC5D80220DF1B40944
:1018D00088460DA800210BF039FF002180224846E0
:1018E0000BF034FF06AE00233360204600967549A6
:1018F0000DAA4B4606F0B3FC032801D00020DDE022
:10190000EDA80DA9012204F0C1FD05460028F5D17E
:10191000FFF7C6FF33684DA980F853308022044694
:1019200008A88DF81750079506F068FCCDF80090D0
:10193000404665490DAA336807F0DAFD2F46EDA849
:101940006DA94FF4007207AB04F039FE38B1EDA871
:1019500005F00DF808A806F067FC0120AEE0079B33
:10196000002BF4D06E1C5949079A204607F0C0FDA1
:10197000236820469B6898476DAB9B46751E4FF0C9
:10198000000A0799C3EB0B028A4222680FD2039325
:10199000CDF808B0D2F804C020464FF0FF321BF853
:1019A000011BE047029B1A78039B9244E9E7936886
:1019B0002046984708A806F0DCFD834608A806F0F4
:1019C00048FC4FF47A7302465946204607F068FDFA
:1019D0000121202208A806F078FD08A806F0CBFD1A
:1019E000504520D008A806F0C6FD394903465246A6
:1019F000404607F07DFD2046364907F079FD236813
:101A000020469B689847236820461B680DF1170104
:101A10004FF47A7298470028F5D1022E06F101039F
:101A200095D81E469FE7079B2B494A4600932046C0
:101A30003B4607F05DFD236820469B68984708A851
:101A400006F097FD824608A806F003FC51460246C0
:101A50004FF47A73204607F023FD08A81F4906F0CB
:101A600084FCD0B908A806F084FD1D490246404612
:101A700007F03EFD2046174907F03AFD236820464F
:101A80009B689847236820461B680DF117014FF4A7
:101A90007A7298470028F5D1BFE708A8114906F0E7
:101AA00020FE079B40461F440F493A46F09B07F033
:101AB0001FFD002D3FF443AF013D40E70DF2DC5D1B
:101AC000BDE8F08F524202006142020078420200FB
:101AD0008A420200703E0200B1420200C742020088
:101AE000CA420200713E0200024302002DE9F041A9
:101AF000074686B006AA002442F80C4D0E463C4923
:101B000006F0ADFB38460121202206F0DEFC039BE7
:101B1000002B63D0384606F099FB00285ED0FFF713
:101B2000BFFE05468DF80B402B6828461B680DF15B
:101B30000B010522984704460028F5D1039B38463F
:101B400085F8533006F015FD274601464FF0FF3269
:101B5000284607F097FC2B6828469B689847254B3A
:101B60000594186804902B6828461B680DF10B013A
:101B70004FF47A72984778B10DF11501032205A848
:101B80000BF0C9FD9DF80B8005A804A904228DF86F
:101B900017800BF0A5FD38B91822B7FBF2F302FB52
:101BA000137262B101330AE0336830465B68414624
:101BB0000122013798470028D5D10134D3E73046B8
:101BC0000D493A4607F094FC74B161230093304606
:101BD0000A4922460A4B07F08BFC05E030460949CA
:101BE0004FF0FF3207F04EFC012006B0BDE8F08157
:101BF000C23E0200063F02000E43020035430200CF
:101C0000EE4302002A44020001480CF089BF00BFE5
:101C10005644020038B504460D4609F051FD074B05
:101C2000B0FBF3F00223B0FBF3F2954201D3236142
:101C300038BDB3F5807FFAD00233F4E740420F009D
:101C40007FB500F235260C460122314604F0E0FB58
:101C5000054650BB04A941F8040D02AA304604F021
:101C6000B1FF00BB029A039B9078926903FB00F1DD
:101C7000023A42435208B2F5004F104834BF0125E2
:101C80004FF480654FEA51010D4BB1FBF5F128BFD0
:101C90000346B2FBF5F28DE80A000A4821460CF033
:101CA000C9FE012008E0084B00E0084B0848214627
:101CB0002A460CF0BFFE002004B070BD9444020020
:101CC000914402009E440200974402009B4402009B
:101CD000CC44020038B5074C23684BB90820FEF706
:101CE000CBFA0546FFF73CF9402328602B712560AD
:101CF000206838BD08C2072038B5054C256825B9CD
:101D00000120FEF7B9FA05702060206838BD00BFD9
:101D100004C2072038B5084C23685BB90C20FEF7D5
:101D2000ABFA0546FFF71CF990232B7100232860BE
:101D3000AB602560206838BDD8C1072010B5044CC1
:101D400023681BB90120FEF797FA2060206810BDB8
:101D5000DCC1072010B5044C23681BB90120FEF735
:101D60008BFA2060206810BD00C20720AD49AE4A42
:101D70004023F0B58B614FF0007393614FF48033D3
:101D80008B61AA4BADF5057D1868072520F0F000A2
:101D900018601868022440F050001860186820F499
:101DA00040501860086840F040000860186820F44F
:101DB0007C201860186840F428201860186820F407
:101DC00070001860186840F420001860186820F04F
:101DD00040401860186840F000401860586820F0D3
:101DE0003C005860586840F028005860586820F05F
:101DF00003005860086840F480300860586820F498
:101E000040505860086820F480000860D96821F4C8
:101E10004031D960116841F080711160596821F436
:101E200040215960596841F480215960986880497F
:101E300001409960116841F4897141F0010111601C
:101E4000996821F470119960996821F07041996046
:101E5000116821F446411160D96821F03001D96040
:101E6000D96841F03001D960D96821F47011D96086
:101E7000136843F000731360136823F080631360EA
:101E800006F08CFC0A20012109F03AFA0A2001210F
:101E900009F04EFA6748012105604460FFF7BAFE79
:101EA00007F064F91520012109F02AFA1520012113
:101EB00009F03EFA6048012105604460FFF7AAFE80
:101EC000FFF74EF8642106F055FF10B95B480CF09F
:101ED00027FE09F053FA02F0CDF810B958480CF07B
:101EE0001FFE4FF4FA6006F013FCFFF78DFE09F0B9
:101EF000E7FB0AF0FDFC53490AF006FE0AF06CF914
:101F000002460B4650480CF095FD09F0CDF8052827
:101F100004AC14D1002363604C4B1B682360FFF7B3
:101F200073FE4B4B4B48D96C1A6D5B6D00940CF0F3
:101F300081FDFFF769FE41F2883006F0E9FBFEF70C
:101F40009DFA4549FFF77CFE054668BB43480CF007
:101F500071FD03F02FFAFEF791FA29462A4600F2A6
:101F6000352005F02BF83E4B3E4A00280CBF1046AA
:101F700018460CF0D5FDFEF781FA3749FFF760FEF1
:101F800090B939480CF0CCFD03F096F9014637487A
:101F90000CF050FD03F080F9054603F08DF905FBC8
:101FA00000F133480CF046FD324E334F336813F0E6
:101FB000010516D1304609F09BFC90B14FF40E702C
:101FC000FEF75AF9012380F83432312380F8353294
:101FD0003A2380F8363280F837523860304609F0BC
:101FE00093FC26493868264DFFF72AFE1148182130
:101FF000FFF710FEFFF708FE2B684BB90820FEF72D
:102000003BF90646FEF7ACFF3823306033712E6093
:10201000286802F0AEF80546B0BB1A480CF080FD07
:1020200033E000BF00C0092020C0092000C00240EA
:10203000F0FCFCFF00000340008008401045020057
:1020400041450200002474496645020044400240B4
:10205000004002407E450200F6450200FE450200B7
:1020600004450200FF4402003B4602005A460200BB
:1020700069460200E8C10720D0C10720803B02006A
:1020800010C20720844602000125FFF743FE02F03C
:10209000A1F9064618B972480CF042FD3546FFF723
:1020A00019FE02F0E7F8064618B96E480CF038FD44
:1020B00035466D4E33681BB90120FEF7DDF8306000
:1020C000306802F0A5F8FFF739FE02F063F9FFF778
:1020D00013FE02F009F9FFF73DFE02F060F9FFF789
:1020E0000BFE002102F002F98DB9FFF78DFDFFF71D
:1020F000F1FD2D2102F0A6F8FFF7ECFD2D2102F0F5
:10210000ADF8FFF7F9FDFF2102F0F0F80CE0FFF762
:10211000E1FD0546FFF7FEFD02F086F90AF0B6FD87
:10212000C1B2284602F0C2F80021102220460BF06E
:102130000DFB4E4821460F22002302F004FA80B91D
:1021400020460BF0A3F8C5B2284601F011F9484A21
:10215000484B2946002808BF13464748434A0CF01D
:1021600069FCFFF7EBFD02F017F9054600200DF0C2
:1021700093FF28440CF0DCFC4FF400720021204651
:102180000BF0E4FA204609F037F921463B480CF001
:1021900051FCFFF739FD8022002120460BF0D6FAD2
:1021A000204603F065F82278FF2A04D021463448FF
:1021B0000CF040FC29E0FFF7CDFD02F0F3F8092810
:1021C0001DD130480CF0ACFC21462F480CF0E4FD4A
:1021D00021462E480CF02EFC2D480CF0A1FC0023CB
:1021E0002C4803A903930CF0D7FD9DF80C30592B14
:1021F00003D1204603F01AF807E0274803E02748F8
:102200000CF08EFC26480CF08BFC4FF208031C6887
:102210004FF20C031D684FF210031E684FF20403C7
:1022200019684FF470431A68A40AAD0A1D480CF0EF
:1022300001FC224629461C480CF0FCFB31461B4899
:102240000CF0F8FBFFF7E0FC012005F0FFFB18485D
:102250000CF066FCFFF7D8FC0DF5057DF0BD00BF66
:102260009F460200B94602000CC20720D246020077
:10227000FF3F02000A450200D846020072570200E2
:102280000C470200284702004A4702004F4702005D
:102290006A470200AD470200B1470200C947020089
:1022A000F747020029480200554802008248020010
:1022B0009F480200012070470120704701207047AD
:1022C00010B5044C23681BB90120FDF7D5FF206031
:1022D000206810BD0CC2072001207047F8B50446E5
:1022E0000E46C06889000CF085FCA568E060AF0070
:1022F000B5420BD20C20FDF7BFFF00230360436003
:102300000372E3680135D8510437F1E76660F8BD20
:1023100038B504460F4B00250360636DE06D9D42A8
:1023200005D250F82500FDF7A9FF0135F5E708B102
:10233000FDF7A6FF0025A36B206C9D4205D250F847
:102340002500FDF79BFF0135F5E708B1FDF798FF84
:10235000204638BDE048020010B50446FFF7D8FF1C
:102360002046FDF78BFF204610BD0000F7B5044660
:1023700000250B464FF480520095254905F018FFC3
:10238000244B042623606663A563E563256404F19A
:1023900034000221FFF7A2FF26656565A565E565A6
:1023A000284660210CF026FCA56DE065AE00172DD7
:1023B0000CD81020FDF760FF0746002110220BF01B
:1023C000C5F9E36D01359F510436F0E718236365C5
:1023D000012384F87030104E0023A4F87430A4F860
:1023E0007630A367002200230027C4E92023C4E934
:1023F000226708F0EDFF4FF47A7200230AF066FCC2
:1024000080197941C4E92001204603B0F0BD00BF26
:10241000F8480200E0480200C0D401002DE9F04174
:1024200091E860000F7A14468FB1082A23D1304614
:1024300005F00CFF00281CDD284614494FF0FF3240
:1024400007F00CF83046012105F0FFFF08E00A2AEA
:1024500019D00D2A12D03046214606F017F997B14F
:102460002B6828462146BDE8F0415B684FF0FF32FB
:1024700018470724F4E70A2A02D1F1E7BDE8F08102
:102480000D2AE8D1ECE7BDE8F08100BF0149020068
:10249000F8B50446142015460F46FDF7EDFE8021E1
:1024A000064606F0A3F8A36BE26B9A4206D3616B73
:1024B000591803D204F13400FFF710FFE36B226CCC
:1024C000591C52F82330E1631F605E601D72F8BD35
:1024D0002DE9F043CF6B85B006460D4601AC4FB9F0
:1024E0004FF47A7008F09AF9204639460C220BF026
:1024F0002DF947E00B6C1B6893E8070084E80700A0
:1025000000238DF8033008F063F880460027EB6B5A
:102510009F4263D22B6C4FEA870953F82730186823
:10252000037C33B103680DF103011B680022984757
:1025300008B90137EBE7EB6B9F422BD22B6C53F8BA
:10254000093093E8070084E807009DF80320284637
:102550002146FFF763FF08F03BFF4FF47A72002338
:102560000AF0B4FBD5E9222380185941C5E92001BE
:10257000029805F06BFE0746029805F06AFE0138E6
:1025800087420ADB94E8070086E80700304605B07A
:10259000BDE8F08305F14403D3E7D5E922231343D3
:1025A00024D008F015FF4FF47A7200230AF08EFB56
:1025B000D5E92023994208BF904217D308F008FFBD
:1025C0004FF47A7200230AF081FBD5E922238018A8
:1025D00059410023C5E920010193D3E707F0F8FF33
:1025E0004045C5D1022008F019F9C1E79DF8033034
:1025F0000A2B88D1C6E70000F0B5064685B0204812
:102600000CF018FA01A83146FFF762FF019C1CB9D3
:102610001C480CF085FA30E0029F384605F016FEA3
:1026200000282ADD08F0D4FE0546F8B1B6F874306B
:1026300006F150000133A6F874303946224605F001
:102640002DF8114B00261868009023681DF806101D
:102650005B6820464FF0FF3201369847042EF4D1D4
:1026600008F0B6FE411B09480CF0E4F9384605F0C5
:10267000F2FD236820469B689847012005B0F0BD15
:1026800004490200713E0200CD4802000A490200DE
:1026900038B5064C236833B92C20FDF7EDFD05460F
:1026A00006F032FE2560206838BD00BFE4C1072077
:1026B00010B50446FFF7ECFF03682146BDE8104063
:1026C0005B684FF0FF32184713B5002302AC04F8E3
:1026D000013DFFF7DDFF036821461B684FF0FF3225
:1026E00098479DF8070002B010BD00002DE9F041A9
:1026F00000F150048AB000250746009520465B494A
:102700005B4A5C4B04F0E8FE009520465A495B4A60
:102710005B4B04F0E1FE009520465A495A4A5B4B58
:1027200004F0DAFE0095204659495A4A5A4B04F003
:10273000D3FE009520465949594A5A4B04F0CCFE25
:10274000009520465849594A594B04F0C5FE00955A
:1027500020465849584A594B04F0BEFE0095204681
:102760005749584A584B04F0B7FE00952046574940
:10277000574A584B04F0B0FE009520465649574A38
:10278000574B04F0A9FE009520465649564A574B30
:1027900004F0A2FE009520465549564A564B04F0D7
:1027A0009BFE009520465549554A564B04F094FE31
:1027B000009520465449554A554B04F08DFE00952E
:1027C00020465449544A554B04F086FE0095204655
:1027D0005349544A544B04F07FFE00952046534918
:1027E000534A544B04F078FE009520465249534A10
:1027F000534B04F071FE009520465249524A534B08
:1028000004F06AFE009520465149524A524B04F0AA
:1028100063FEFFF73DFF4FF480734FF41641202213
:10282000054606F051FD804601262E744B48FDF703
:1028300089FD4B48FDF780FD384629463246FFF7B3
:1028400027FE03A9082205A805F0D8FC05A84549DC
:1028500005F047FF05A92A46204604F01FFF05A8FA
:1028600005F0E2FC40460AB0BDE8F0810D0501002C
:102870006A49020020490200F90501005749020097
:102880005F490200191101007D4902006F490200F1
:102890001D060100C549020084490200F10801003B
:1028A000CA490200CE490200710801006D4A0200C7
:1028B0002A4A0200010D01006C4A0200704A02001F
:1028C000FD090100BB4A0200BE4A02007D0B010067
:1028D000EC4A0200F24A0200F50B0100174B02001D
:1028E0001A4B0200510C01005D630200474B0200CD
:1028F000B90B01006C4B02006F4B0200810F01000D
:10290000924B0200964B0200410E0100694C0200FE
:10291000714C0200FD0E0100B44C0200BB4C0200E1
:10292000E1060100CE4C0200D24C02002D0F010046
:10293000D14D0200D74D0200411701005D45020054
:10294000FF4D0200751301001D4F0200294E0200C9
:10295000BD120100C33B0200E64E0200C926010081
:10296000B12601004D4202007FB50C4606461546D1
:102970006846002110220AF0E9FE4FF000032946C4
:1029800064F30303224602A88DF8023001960AF090
:10299000B7FE00206946024606F00EF904B070BD8D
:1029A0001FB50B0E0091090C019062F303016FF348
:1029B000C71300208DF803308DF80210DDE90623DF
:1029C0006946CDE90223024606F0F6F805B05DF847
:1029D00004FB000038B5064C236833B92C20FDF702
:1029E0004BFC054606F018FD2560206838BD00BF89
:1029F00014C2072013B5FFF7EDFF802213464FF4F2
:102A0000165106F0E9FC0024642213460094019458
:102A100020464FF4165105F0B7FF6422009401944C
:102A20004FF416511346012005F0AEFF02B010BD61
:102A30002DE9F0414A4DA4B02B68804613F0010FF8
:102A40000C46484F09D1284608F052FF28B1FFF73D
:102A5000C1FF3860284608F057FF04AE2C23002140
:102A60008022304600258DF807300AF06FFE64237F
:102A70003868314680220295ADF80C5006F010FD02
:102A80002B46013302AAF15C1A44052B02F8011C03
:102A9000F7D1354B02A953F828000CF00AFB0028A7
:102AA0005AD1A3883146B3F5FA6F28BFA080A38816
:102AB0002E480133A3800BF0BDFF0DF10701304616
:102AC0000DF0E8F902A92A480BF0B4FF0DF1070157
:102AD00000200DF0DFF9014626480BF0ABFF002087
:102AE0000DF107010DF0D6F90378412B18D1012320
:102AF00023600DF1070100200DF0CCF90AF0C3FBB3
:102B000009F0F0FD0DF10701A06000200DF0C2F901
:102B10000AF0B9FB09F0E6FD2168E060164805E01F
:102B20000023002114482160A360E3600BF082FFC2
:102B3000A18812480BF07EFFA06809F04DFB024609
:102B40000B460F480BF076FFE06809F045FB0246A4
:102B50000B460C480BF06EFF24B0BDE8F08100BFBF
:102B600018C207201CC20720E04F02003F4F02009E
:102B70004F4F0200624F0200754F0200854F020066
:102B8000954F0200A54F020008B5012004F05EFF3A
:102B9000FFF730FF012008BD0120704770477047E4
:102BA00070470000000000002DE9F041484F88B058
:102BB00039460620FFF73CFF3D78BC88BE68FF68B9
:102BC000002004A9024605F0A5FF002853D0059A6D
:102BD000642AF5D1B4F5FA6F28BF4FF4FA64E2B273
:102BE00005F0010343EA420330468DF8083009F04E
:102BF000F3FA35A3D3E9002309F06CFC0022354B2E
:102C000009F08CF909F04EFD20F07C48C0B20001BB
:102C100040EAD4104FEA18138DF809008DF80A30F5
:102C200038464FEA18338DF80B3009F0D5FA26A351
:102C3000D3E9002309F04EFC0022264B09F06EF97F
:102C400009F030FD20F07C439A08C0B28DF80D20C9
:102C500008219A0A4FEA185848EA80188DF80E2081
:102C60009B0C0DEB010240208DF80C808DF80F308D
:102C7000FFF77AFEA4E7184C23681BB90120FDF783
:102C8000FBFA20602068012101F098FB88B1FFF772
:102C900033F8012101F058FB11220023CDE9002374
:102CA00040F2111000210122FFF77AFE0B480BF0D1
:102CB00037FFFFF721F8012101F059FB08B0BDE80B
:102CC000F08100BFAFF300808DEDB5A0F7C6B03E38
:102CD00020C207200000E03F00C207200050020091
:102CE0007047000010B50024074B002118684FF012
:102CF000FF320B4607F0C4F920B101342046FFF73C
:102D00004DFFF1E710BD00BF34C2072010B500240D
:102D1000074B002158684FF0FF320B4607F0B0F91F
:102D200020B101342046FFF73FFFF1E710BD00BF9F
:102D300034C2072010B50024074B002198684FF0DB
:102D4000FF320B4607F09CF920B101342046FFF713
:102D500026FFF1E710BD00BF34C2072010B50024E4
:102D6000074B0021D8684FF0FF320B4607F088F977
:102D700020B101342046FFF713FFF1E710BD00BF7B
:102D800034C20720FFF700BFFFF706BF10B50446A7
:102D9000FDF774FA204610BD73B50E4605462E4B5E
:102DA00000241A682D490D23009405F001FA2C4BDC
:102DB000A6422B6014BF01230A23EB6185F8316022
:102DC000214603222C62012007F030F8254E2146CF
:102DD00030600322012007F029F8214670600322A9
:102DE000012007F023F895F83130B0602BB10120B5
:102DF0002146032207F01AF8F0601B4B00241E68DE
:102E00000523C6F38F068DE818001849324623467D
:102E1000174807F097FA06238DE81800154932463F
:102E20002346154807F08EFA07238DE8180013484B
:102E300023461349324607F085FA95F8313043B1FD
:102E400008238DE818000F480F493246234607F043
:102E500079FA284602B070BD0450020018500200F2
:102E6000C050020034C20720FC4F02002350020071
:102E7000E52C0100275002000D2D0100352D010029
:102E80002C5002005D2D01003250020070B50D463D
:102E90001A4B002453F8216019494B5D0133DBB212
:102EA000934202D04B55204670BD4C5530462146CA
:102EB0002246234607F0E4F80146B8B1114B53F817
:102EC000255028460BF02CFE28460CF004F923462A
:102ED000024629460C4801F07CFB0C4A0C4B9A64D4
:102EE0004FF08043AA221A721C7004E030460A4652
:102EF0000B4606F0C1FF012070BD00BF34C20720A1
:102F000030C207200850020039500200EFBEADDE8B
:102F10000040024010B590F831300446B3B10321AF
:102F20000122FFF7B3FFA0B1204602210A22FFF7DA
:102F3000ADFF70B1204601210A22FFF7A7FF40B183
:102F4000204600210A22FFF7A1FF02E00221012210
:102F5000EDE7012010BD10B59020FDF78DF9044676
:102F60000321FFF703FA204605F0F4F83420FDF7BB
:102F700083F904460021FFF70FFF204605F0EAF829
:102F80000020014605F0F4F84FF0FF3010BD242377
:102F900010B503FB010188420BD043783BB1038C91
:102FA000D4184FF6FF73A34228BF2346038424306E
:102FB000F1E710BD37B5002302A840F8043D0C4BE3
:102FC00004215B6898470B4B019A1C680546141B4B
:102FD0001A60094822460421FFF7D9FF0748022159
:102FE0002246FFF7D4FF281C18BF012003B030BDD4
:102FF00044C2072010C3072058C2072033C307204C
:1030000008B50B4B197803788B420A4B0BBF1A8813
:103010009A880132013214BF9A801A80064B81705F
:10302000DB6820219847003018BF012008BD00BF91
:1030300005C0072000C3072044C207200A4B0278BE
:103040001B789A42094B0BBFDA881A890132013288
:103050000CBFDA801A810379C3F3C202073262F32C
:10306000C5030371FFF7CCBF05C0072000C30720CD
:1030700010B5002306499A0011F82340844201D17B
:10308000881810BD0133042BF4D1002010BD00BFFF
:1030900021C3072070B1C3780133DBB2FF2BC370AB
:1030A00008D10023044A1A44D17804334908102B6C
:1030B000D170F7D1704700BF21C30720242202FB43
:1030C00001010346024630B58A4206D01446243236
:1030D00012F8235C002DF7D10FE0044600258B4247
:1030E0000BD01A79C2F3C2001A8C42EA0042954210
:1030F0003CBF1C4615462433F1E7204630BD000096
:1031000038B50546C90001F10804FFF753FF1C4B11
:103110001A782B789A4204D102211A48FFF7CEFF81
:103120000CE019480421FFF7C9FFEB7833B990F898
:103130002330042443F0800380F82330002380F8F8
:10314000203080F8213002462B4690F8231080F87A
:10315000224021F07F01C4F306240C4380F8234071
:1031600005F1200153F8044B8B4242F8044BF9D18E
:10317000064A0379127862F3C503037138BD00BFB4
:1031800005C0072033C3072058C2072004C007200A
:1031900010B5FFF76DFF0446F8B9FFF769FF044665
:1031A000D8B90F4BDA79D9788A4228BF0A46D97A3A
:1031B00034BF1C1D1C4691422CBF1146094CDA7BC2
:1031C000094B8A4238BF1C460422204600210AF0DF
:1031D000BDFA064AD37A0133D372204610BD00BF30
:1031E00021C3072029C307202DC3072000C30720C0
:1031F0002DE9F04105460C464FF0240808FB021863
:103200008E1D444500F09E8094F823301A0625D583
:10321000BDB12A7861788A4205D16F7816F8060C1C
:10322000874200F09180E87858B16878884208D1E8
:1032300016F8061C914204D1A979A279914200F0B6
:10324000838094F82220218C03F07F0342EA032339
:10325000994274DB2046FFF7D3FE75E06278002ABE
:103260006DD06DB3297901F0C001C02917D116F8CE
:10327000060C6978884202D12878904264D0E778B9
:10328000A87887420CD191420AD116F8060C297809
:10329000884205D1A079A979884201D154E079B159
:1032A000A878E17888420BD16978914208D116F864
:1032B000060C2978884203D1A079A979884249D09F
:1032C00094F82210208C03F07F0341EA03239842F4
:1032D00035DB002384F8203084F821302379C3F3D0
:1032E000C201CFB21FB12046FFF7A8FE27E003F0CE
:1032F000C003C02B19D01C4B16F8060C1B78984243
:1033000013D1E378934210D07BB16379032262F347
:1033100007136371E1702046FFF790FE134A23798B
:10332000127862F3C503237100E001276078FFF78C
:103330009FFE18B1002104220AF008FA27B92434AC
:1033400024365EE7BDE8F0812046002124220AF001
:10335000FDF9F4E72279002363F3C50284F82030F5
:1033600084F821302271EAE705C0072004C0072055
:10337000431EDBB2FD2B9DBF024B187001200020C5
:10338000704700BF05C00720014B1878704700BF89
:1033900005C0072007289CBF014B1870704700BF6D
:1033A00004C007202DE9F743044691461E469DF8C8
:1033B00028500F46002963D0354B93F800804145D3
:1033C00060D00F2E5ED800285ED0202200210AF0A7
:1033D000BDF9FF2F237914BF09F00302002262F325
:1033E0008713032262F302032A4A6770127884F873
:1033F000008062F3C503284A2371137884F80280A1
:103400000133DBB21370A3710BAB019315B94FF00D
:10341000010818E0019AE0791346526853F8081B36
:1034200000EB02085FFA88F8013DB8F1180F01932C
:10343000EDB206D8083020440AF062F984F807801B
:10344000E4E74FF00008DFF854900123384689F88C
:103450000030FFF70DFE0546FFF71CFE002389F83C
:103460000030637925B966F307136371E57005E0F1
:10347000AA7862F3071363716B78E370404603E048
:10348000084601E00020FFE703B0BDE8F08300BF7D
:1034900005C0072004C0072031C307200CC3072044
:1034A000124B012270B51A7004461E4608B9002559
:1034B00018E0FFF7A5FD05460028F8D0237903F0B2
:1034C000C003402B06D0C02B0AD1E37853B16278F9
:1034D0009A4207D0617920460909FFF711FE01E001
:1034E000802BF7D000233370284670BD0CC3072013
:1034F00082B0F0B51746421ED2B28DB0FD2A044606
:103500000D46139301D900205AE0002BFBD0159BE8
:10351000002BF8D0179B002BF5D0169B002BF2D078
:10352000149B002BEFD00021482228480AF00EF906
:103530000021902226480AF009F90021102225488E
:103540000AF004F900210C2223480AF0FFF80021B8
:103550000C2222480AF0FAF8214E224B1C70344605
:10356000214B1D7013AD0FCD0FC42B680021182205
:103570001E4823600AF0EAF839461C4817220BF06F
:10358000EEFD0020B368014698470028BBD09DF8A7
:10359000603013B9FFF70EFD12E0154A01230192C6
:1035A00006220292009304A8FF210022FFF7FAFEF0
:1035B0000028A8D004A8FFF773FF0028A3D0E9E7EC
:1035C0000DB0BDE8F04002B0704700BF33C3072024
:1035D00058C2072021C3072015C3072000C30720B6
:1035E00044C2072005C0072014C30720E8C20720F3
:1035F000D850020030B5182B8DB005460C4615D8B2
:10360000B2FA82F1181C18BF0120490981420DD07D
:103610008DE80D00294604A822469DF84030FFF7AA
:10362000C1FE18B104A8FFF73BFF00E000200DB079
:1036300030BD13B50446107852790B46120900923A
:1036400003212246FFF7D6FF02B010BD00231A4621
:1036500030B5084C990014F823502DB1904201D197
:10366000601830BD0132D2B20133042BF1D10020F9
:1036700030BD00BF21C3072000231846044A12F8BA
:1036800023200AB10130C0B20133042BF6D17047B8
:1036900021C307202DE9F04188B06846002120228F
:1036A0000AF054F8A14B1B7803F0FF04002B40F004
:1036B0003A819F4E6846336920219847002800F0E0
:1036C00083809C4D6B8801336B80FFF7D5FF9DF89D
:1036D0000420A87202F00703032B04D0964A137843
:1036E00043F0010309E0954B1D789DF80230AB4291
:1036F00005D1914A137843F002031370E3E0C2F35B
:10370000C2029DF800E09DF80600D7B28C4904EB98
:10371000440313F801C0F4450AD10B44597881429F
:1037200006D199780124CF1B18BF01279A7018E0A1
:103730000134042CEAD183490B689A70804A58708E
:1037400002F10900834283F800E040F0C9800A607A
:103750009DF800009DF80230834240F0C4800024B0
:1037600027469DF80200FFF713FD9DF80220027026
:103770009DF80220427000228270FFF78BFC04B19A
:1037800017B39DF80030AB4200F09C809DF80170AB
:10379000FF2F1BD1336868462021984720B9664A1D
:1037A000137843F0040313709DF8053003F00F0203
:1037B000511C61F303038DF80530C3F303139A42E0
:1037C00002DA6846FFF71CFC00247CE0BD422BD1E6
:1037D00064B99DF807304BB133686846202198479B
:1037E00020B9554A137843F0040313709DF8043050
:1037F00003F0C003402B12D19DF8073013B9524893
:10380000182108E04B480C216A46FFF712FF0028F8
:1038100058D1002001466A46FFF70BFF52E09DF8A1
:103820000330002B4ED1F4E7484B1B78002BCBD054
:103830009DF8054004F00F064FEA14184645C3DA18
:10384000013666F303043846FFF712FC8DF8054095
:103850009DF80340A5421ED19DF8041001F0C0015F
:10386000402906D0A1F180035A425A41144618B9A2
:103870001BE00122002854D0C029437805D19F4283
:1038800003D0003318BF012300E00023134303F0EB
:10389000010428B90BE0ACB910B9684641460FE005
:1038A00043788DF80330857804E0C02939D00025AD
:1038B0008DF803506846FFF7A3FB1CB16846294604
:1038C000FFF71EFC6C46FFF775FB204620490422DB
:1038D000FFF78EFC20461F490222FFF789FC22E0F9
:1038E00003330B6034E785423FF439AFFFF750FCF8
:1038F0000446FFF7CFFB23783BB19DF80530A27853
:1039000003F00F0393423FF72AAF9DF80030237076
:103910009DF8023063709DF80530C3F30303A37074
:103920001DE70346B2E708B0BDE8F0810CC30720ED
:1039300044C2072000C3072032C3072005C0072068
:1039400015C3072000C00720E8C2072014C30720C2
:1039500058C2072033C3072000231846094A1A44D7
:1039600052780AB10130C0B22433902BF6D1064B05
:103970005A780AB10130C0B293F825300BB101304A
:10398000C0B2704758C2072033C3072008B5FFF7FD
:103990006FFB064B28B18278187802FB0000C0004C
:1039A00008BD18781823584308BD00BF04C007207D
:1039B00003490B6803604B6843608B688360704702
:1039C00000C3072030B5414C4FF48035E561404CD1
:1039D000A060E068C506FCD43D488068C0B20BB961
:1039E0000C4665E00B46002A6AD0072A384C0D7851
:1039F0002FDDA5604D78083AA5608D78A560CD785B
:103A0000A5600D79A5604D79A5608D79A56001F15E
:103A10000805C979A1602E498C696407FBD58C68BB
:103A20001C708C685C708C689C708968D97028499F
:103A3000CC68E406FBD48C68083303F8044C8C682B
:103A400003F8034C8C6803F8024C896803F8011CE6
:103A50001BE0032A1BDDA5604D78043AA5608D7834
:103A6000A5600D1DC978A1601949CC68E406FBD496
:103A70008C68043303F8044C8C6803F8034C8C689E
:103A800003F8024C896803F8011C2946ABE70131B1
:103A9000A560013AE568ED06FCD40D4C0133A4683D
:103AA00003F8014C9FE7DD68ED06FCD4084B9B68EA
:103AB000631A934204DA14F8015B054B9D60F2E748
:103AC000024B4FF480329A6130BD00BF00C0092024
:103AD0000080084007B5002302A9012201F8013D3A
:103AE00000F01F001346FFF76DFF9DF8070003B0BD
:103AF0005DF804FB07B502AB03F8011D00F01F00E1
:103B000019460122002340F02000FFF75BFF03B0BD
:103B10005DF804FB08B51720FFF7DCFFC0F30010C9
:103B200008BD07207021FFF7E5BF03460A46A02025
:103B300019460023FFF746BF08B50020FFF7CAFF6C
:103B4000BDE8084000F0FE010020FFF7D3BF0000F1
:103B5000024B4FF08072DA61704700BF20C009202D
:103B600008B50020FFF7B6FF40F00101C9B2002000
:103B7000FFF7C0FF024B4FF080729A6108BD00BF93
:103B800020C0092007202021FFF7B4BF0021E12039
:103B90000A460B46FFF716BF37B50C460546FFF73A
:103BA000F5FF21462846FFF7C0FF0D4B4FF080720E
:103BB0001C469A610022ADF80620BDF8063001339C
:103BC0009BB2ADF8063033B94FF08073E361FFF775
:103BD000DDFF03B030BDFFF79DFF0028EDD0F3E718
:103BE00020C0092008B51720FFF774FF00F001007E
:103BF00080F0010008BD07204021FFF77BBF08B51A
:103C000003460A46612019460123FFF7DBFEC0F395
:103C1000420008BD0021E2200A460B46FFF7D2BE53
:103C200070B5064600200D461446FFF753FF16B147
:103C300000F0BF0002E040F04000C0B215B100F05B
:103C4000DF0101E040F0200114B101F0EF0101E0DB
:103C500041F010010020BDE87040FFF74BBF10B5E8
:103C600004460020FFF736FF14B900F0F7010DE01D
:103C7000012C04D100F0FB0141F0080106E0022C08
:103C800014BF40F0080140F00C01C9B20020BDE8AB
:103C90001040FFF72FBF08B50020FFF71BFFBDE85E
:103CA000084040F00201C9B20020FFF723BF08B569
:103CB0000020FFF70FFFBDE8084000F0FD010020E5
:103CC000FFF718BF40F6DD13984206D840F662139E
:103CD000B0F5166F38BF184600E01846A0F516611B
:103CE000C9B20520FFF706BF10B504460620FFF74E
:103CF000F1FEFA2C00F0D70102D141F0200104E0DE
:103D0000B4F5FA6F08BF41F008010620BDE8104085
:103D1000FFF7F0BE10B504460620FFF7DBFE032CCC
:103D200020F0060028BF032440EA4401C9B206205F
:103D3000BDE81040FFF7DEBEF9284FF0FA0305D9C1
:103D4000B0F57A6F88BF4FF47A6000E01846B0FB98
:103D5000F3F00F2900F1FF30C0B228BF0F2141EA74
:103D60000011C9B20420FFF7C5BE1130C0B2162839
:103D700004D8202928BF2021FFF7BCBE70470328A4
:103D800004D0042814BF0321022100E001210320F4
:103D9000FFF7B0BE03460A46302019460023FFF75E
:103DA00011BE03460A462A2019460023FFF70ABE21
:103DB00073B50E4615460446FFF72CFFFFF7E6FEE7
:103DC0002B4B4FF08072DA61FFF771FF00210A463A
:103DD0000120FFF725FFFFF7A4FE0220FFF73FFFBA
:103DE0003046FFF76FFF2846FFF77EFF0320FFF7FF
:103DF00091FF02200321FFF77DFE01200021FFF744
:103E000079FE4FF4FA700321FFF796FF2146002058
:103E1000FFF7ABFF12200021FFF76CFE13200021FB
:103E2000FFF768FE14200021FFF764FE1520002133
:103E3000FFF760FE00211620FFF75CFE0D4B1868AF
:103E40001B79009005208DF80430FFF798FF684635
:103E50000521FFF79FFF68460521FFF7A2FFFFF747
:103E60001AFF4FF4FA6004F03EFC02B070BD00BFD0
:103E700020C00920DF50020070B5174E326822B909
:103E80000320202105F0D2FF3060144D2A6822B9AA
:103E90000120202105F0CAFF2860114C216821B9BA
:103EA0000120032205F0C2FF2060202040F6C3114C
:103EB0004FF4FA62FFF77CFFFFF752FE1620012154
:103EC000084A04F03FFF306828B1286818B120681C
:103ED000003018BF012070BD80C307207CC30720BD
:103EE00084C30720913F010070B506460379002284
:103EF00003F0C003C02B0CBF0D4B0E4B88B01D68E8
:103F000031462846134605F0B7FF044660B92246FD
:103F100023466946284606F0B3F82246234628463B
:103F2000314605F0A9FF0446204608B070BD00BF29
:103F30007CC3072080C3072038B504460D46FFF731
:103F400023FA237883420AD0E37843B90AF018FEB3
:103F5000BD2300F0030000FB033004F0C4FBFFF7B7
:103F6000F7FDFFF7E9FD2046A9B2FFF715FEFFF7C1
:103F700009FEFFF7F5FD06F06DFE022804D1034BA4
:103F80000021186806F04AF8012038BD84C30720D4
:103F900007B5002302A941F8043D084B186806F054
:103FA0003DF8019B3BB1064B4FF080521A60BFF3C6
:103FB0004F8FBFF36F8F03B05DF804FB84C30720FE
:103FC00004ED00E038B505460C46FFF70BFE48B19E
:103FD000A1B22846FFF713FEFFF704FE08B9FFF76A
:103FE0000AFE012038BD2DE9704306460D461446F1
:103FF00006F030FE022807D122463046294600232B
:1040000006F03EF8C4B21DE007F0E2F94FF47A7210
:10401000002308F05BFE10EB040841F100090022C8
:1040200030462946134606F02BF8C4B254B907F0BF
:10403000CFF94FF47A72002308F048FE894508BF93
:104040008045ECD22046BDE87083042938B505468A
:1040500003D1041C18BF012400E0002407F0B8F9C4
:104060002CB14FF47A72002308F030FE286020460D
:1040700038BD000000B50C4B8DB009930B4B0C4ABA
:104080000B930C4B0A930CAB43F8102D00220492B7
:104090000FCB8DE80F00084B0121084A6A20FFF77B
:1040A00027FA0DB05DF804FB793E0100C53F010021
:1040B0004B400100393F0100E93E0100E45002009D
:1040C00003460A46024908681946FFF78CBF00BF3D
:1040D00080C3072003460A46024908681946FFF7CD
:1040E00082BF00BF7CC3072008B506F0B3FD0F4BAD
:1040F00002285B6913D15A020DD5FFF72DFC0C4B3A
:1041000000284FF00001186814BF01224FF0FF3261
:104110000B4605F0B5FFBDE80840FFF7BBBA5B02F0
:10412000F9D5FFF719FC0028F5D108BD00C009201A
:1041300084C3072030B504460D46134621792A462C
:10414000BDE83040006805F0ADBA1FB50A4604ABC3
:104150000021022423F8041D01790094006805F071
:104160008CFA9DF80C009DF80D3043EA002004B055
:1041700010BD10B504462A211922FFF7DBFF206885
:1041800021790D2205F07DFAA0F12A035842584109
:1041900010BD0000044A13881F2B9FBF581C1080BD
:1041A000024A42F8231070478CC3072090C30720AF
:1041B000144AF0B51488012C20D9134B00211F4656
:1041C000661EB14206DA58681D680131401B43F88B
:1041D000040BF5E77B6803EB5301002318469CB200
:1041E000B44209DA57F8245001338D4282BF0125C9
:1041F00005FA04F42043F2E7044B1860002313800F
:10420000F0BD00BF8CC3072090C3072088C30720E0
:1042100008B50220012107F073F8084B01209A6AC3
:1042200022F007029A629A6A42F006029A62044AEF
:10423000D36843F03003D36008BD00BF0080004066
:1042400000C0024008B5044A01F07F034171D25C0E
:104250000321FFF76FFF08BDE950020008B5044ACB
:1042600001F07F038171D25C0221FFF763FF08BD7B
:10427000E950020038B504460068217905F01DFABE
:10428000054688B1204606210022FFF753FF20464D
:1042900007210022FFF74EFF20462E21FFF7D2FF15
:1042A00020462E21FFF7DAFF284638BD642370B57B
:1042B000B1FBF3F404FB1311CCB20A21B4FBF1F50A
:1042C00001FB15413031C9B20646FFF7C7FF092C83
:1042D0008ABF05F1300130463046BDE8704094BFDA
:1042E0002021C9B2FFF7AEBF0120704738B50D4697
:1042F000044606F0E7FD05F00F032370114B15F09F
:10430000010F4FF0010214BFDA619A61227812F0B6
:10431000020F4FF0020214BFDA619A61227812F0A4
:10432000040F4FF0100214BFDA619A61227812F084
:10433000080F4FF4807214BFDA619A61BDE838400B
:1043400006F0D0BD20C0092038B504460D4606F061
:10435000B9FD013D23780121A9401943C9B221705B
:104360002046FFF7C3FFBDE8384006F0BBBD38B5B7
:1043700004460D4606F0A6FD013D23780121A94023
:1043800023EA010121702046FFF7B0FFBDE8384065
:1043900006F0A8BD01207047022004F039BA0120C0
:1043A00070470000044B5B69C3F38130C3F34123C2
:1043B00043EA8000704700BF20C0092010B54C1EA2
:1043C000032C05D8FFF7EEFF204100F0010010BDDF
:1043D000002010BD10B5044601218122FFF7AAFE7E
:1043E00020682179012205F04CF910F0600F14BF0C
:1043F0000120002010BD38B500210546FFF7A5FEBD
:104400008122012184B22846FFF794FE24B21020B5
:1044100094FBF0F008F070FA4FF0765108F0C0FA13
:10442000A96808F0B5F938BD08B5FFF7E4FF0549FC
:1044300008F0B6FA044908F067FB4FF0844108F031
:10444000A7F908BD000010410000A0402DE9F04F81
:104450000546ADF2546D0C46904682A829460122CD
:104460009946DDF878A602F011F8002867D12146B8
:104470000DF22C400A2202F009F8044620B182A86D
:1044800002F075FA20465AE08346064600900190F5
:1044900006F09EFF4FF47A72002308F017FC02A981
:1044A00007464FF4007282A86B4602F088F8054672
:1044B000D8B9009BCBB106F08BFF4FF47A72002382
:1044C000F61B08F003FC064406F082FF4FF47A72F4
:1044D000002308F0FBFB02A90746009A0DF22C40CE
:1044E00001AB02F02AF90546B8B1B8F1000F01D0CE
:1044F000C8F80060B9F1000F01D0C9F800B0BAF1F6
:10450000000F01D0CAF8004082A802F030FA0DF284
:104510002C4002F02CFA284611E0019A009B9A42A6
:10452000E3D106F055FF4FF47A72002308F0CEFB7A
:10453000009BBBEB070200EB020B1C44A8E70DF24B
:10454000546DBDE8F08FF0B50446ADF50B7D0F4618
:10455000164621461D4601A800230122009301F0C2
:1045600095FF044670B91DB101A8294602F011FA61
:1045700001A8394632466B4602F021F8044601A8EC
:1045800002F0F5F920460DF50B7DF0BDF0B50446BF
:10459000ADF50B7D0F46164621461D4601A80023AA
:1045A0000A22009301F072FF044670B91DB101A800
:1045B000294602F0EEF901A8394632466B4602F070
:1045C000BCF8044601A802F0D2F920460DF50B7D97
:1045D000F0BDF0B50446ADF50B7D0F4616462146FD
:1045E0001D4601A800231222009301F04FFF04464C
:1045F00080B901A80DB1294600E0049902F0C9F97B
:1046000001A8394632466B4602F097F8044601A8E5
:1046100002F0ADF920460DF50B7DF0BD7F2816D9CF
:1046200031B1FF2812D80A4B803833F81000704798
:10463000074A8BB232F81120824203D0013180291F
:10464000F6D10B4603F18000C0B2704700207047DE
:104650006A5102000023064A32F8132032B1904218
:1046600001D00133F7E7034A32F81300704700BF67
:104670004A5402006A52020010B501200C4605F0AF
:104680007DFC2060003018BF012010BD0120704764
:1046900010B5044606F0DEFA02280AD100210B46C6
:1046A00020464FF0FF3205F0EBFC431E58425841C4
:1046B00010BD012010BD10B5044606F0CBFA02284B
:1046C00007D100212046BDE810400A460B4605F000
:1046D000D3BB10BD10B5044604F0B8FD24B1012CC5
:1046E00006D100F07BF901E000F0EEFC044600E0AA
:1046F000042404F0C3FD204610BD28B1012801D0D8
:104700000420704700F018BA7047F8B507460E4607
:1047100015461C4604F09AFD3FB1012F0CD13046DE
:104720002946224600F010FA04E030462946224687
:1047300000F016FD044600E0042404F09FFD20462E
:10474000F8BDF8B507460E4615461C4604F07EFD3A
:104750003FB1012F0CD130462946224600F042FAE3
:1047600004E030462946224600F020FD044600E0E1
:10477000042404F083FD2046F8BD70B506460D46BE
:10478000144604F063FD36B1012E0AD128462146B5
:1047900000F082FA03E02846214600F02BFD044693
:1047A00000E0042404F06AFD204670BD08B506F060
:1047B0000FFE4FF47A72002308F088FA08BD00005B
:1047C00010B5044606F07CFF074BB0FBF3F0022364
:1047D000B0FBF3F2944202D3044A136110BDB3F567
:1047E000807FF9D00233F3E740420F00000003401E
:1047F000044B9860DA68D206FCD4024B9868C0B2C9
:10480000704700BF0000034038B5FFF7CFFF00F549
:10481000FA75FF20FFF7ECFFFF20FFF7E9FFFF2805
:10482000044606D0FFF7C2FF0023994208BFA84202
:10483000F2D3204638BD000038B5064C4FF0007565
:10484000E561FFF7E1FF044AA561137843F0010336
:10485000137038BD20C0092006C0072070B505467A
:104860000E46FFF7A3FF00F16404FF20FFF7C0FF2F
:10487000FF2808D1FFF79AFF0023994208BFA04202
:10488000F3D3002070BDFE28FBD1102E06D9284698
:104890004FF40071002204F077FC19E02C1DFF207A
:1048A000FFF7A6FF04F8040CFF20FFF7A1FF04F8B0
:1048B000030CFF20FFF79CFF04F8020CFF20FFF71A
:1048C00097FF043404F8050C331D1B1BDD42E6D1B1
:1048D000FF20FFF78DFFFF20FFF78AFF012070BD4B
:1048E00070B506460D46FFF78FFFFF28044619D125
:1048F0002846FFF77DFFFD2D16D04FF400712246AC
:10490000304604F041FC2046FFF772FF2046FFF7D7
:104910006FFF2046FFF76CFF00F01F00431F584257
:10492000584170BD002070BD012070BD020638B531
:1049300004460D4607D577200021FFF7F7FF012831
:1049400036D804F07F041B4B4FF000729A61DA6195
:10495000FFF75AFFFF282AD12046FFF749FF280E0C
:10496000FFF746FFC5F30740FFF742FFC5F30720F7
:10497000FFF73EFFE8B2FFF73BFF402C04D0482C86
:104980000CBF8720012000E09520FFF731FF4C2C61
:1049900002D1FF20FFF72CFF0A24FF20FFF728FF9A
:1049A000030605D5013C14F0FF04F6D138BDFF2005
:1049B00038BD00BF20C00920064A0749137849695D
:1049C000DBB2490154BF03F0FD0343F0030313704E
:1049D000704700BF06C0072020C009202DE9F3471B
:1049E000FFF7EAFF514B1A781E4612F0020F01D072
:1049F000187896E00120FFF7E3FE0A24FF20013C2F
:104A0000FFF7F6FE14F0FF04F8D1494D4FF00073A4
:104A1000EB6140202146FFF789FF012801D00024E7
:104A20006EE0FFF7C3FE4FF4D57100F57A7A4820A7
:104A3000FFF77CFF01283DD1FF20FFF7D9FE01AF32
:104A400038550134042CF7D19DF80630012BE6D1FE
:104A50009DF80730AA2BE2D1FFF7A8FE4FF000091E
:104A6000494508BF5045D04606D3FFF79FFE49454C
:104A700008BF4045D3D207E0E9204FF08041FFF75F
:104A800055FF0028E8D1F0E77A200021FFF74EFF1C
:104A90000028C4D10446FF20FFF7AAFE3855013490
:104AA000042CF8D19DF8043013F0400F14BF0C24EF
:104AB000042425E02146E920FFF738FF022835BF0E
:104AC00002240124E9274127FFF770FE4FF0000977
:104AD000494508BF5045D0460BD3FFF767FE49450F
:104AE00008BF40450CD34FF400715020FFF71EFF64
:104AF00006E038460021FFF719FF0028E4D1ECE773
:104B00000C4B1C704FF00073AB613CB13378182034
:104B100003F0FE033370FFF753FE01E0FFF78CFE56
:104B20003078C0B202B0BDE8F08700BF06C00720F1
:104B300020C0092010C4072008B5FFF73DFF014B36
:104B4000187808BD06C00720F8B5144607460E467B
:104B5000FFF732FF002C3AD01F4B1B78DB0738D40D
:104B60001E4B4FF00072DA611D4A1D46127812F09A
:104B7000080F08BF7602012C0DD151203146FFF7F6
:104B8000D5FEE8B938464FF40071FFF767FEB0FA7A
:104B900080F4640914E052203146FFF7C7FE78B96B
:104BA00038464FF40071FFF759FE28B1013C14F06C
:104BB000FF0407F50077F3D14C200021FFF7B6FE84
:104BC0004FF00073201CAB6118BF0120F8BD04201A
:104BD000F8BD0320F8BD00BF06C0072020C0092093
:104BE00010C40720F8B5144607460E46FFF7E4FE4A
:104BF000002C45D0254B1A78D20743D41B785B078D
:104C000042D4234B4FF00072DA61224A1D461278DB
:104C100012F0080F08BF7602012C0CD15820314643
:104C2000FFF784FE28BB3846FE21FFF759FEB0FA95
:104C300080F464091DE012F0060F03D0D72021464E
:104C4000FFF774FE59203146FFF770FE88B93846E9
:104C5000FC21FFF745FE28B1013C14F0FF0407F5E5
:104C60000077F4D10020FD21FFF73AFE002808BFAD
:104C700001244FF00073201CAB6118BF0120F8BD68
:104C80000420F8BD0320F8BD0220F8BD06C00720AF
:104C900020C0092010C407207FB504460D46FFF749
:104CA0008BFE052C1AD12B78012B00F0FD8003D34D
:104CB000022B0BD00420FAE07E4B586910F0806480
:104CC00040F0F280FFF7B8FD2046F0E0794B5B69D9
:104CD00083F08063C3F380636B70E5E0764B1B78F1
:104CE000DB0700F1E3800E2C00F2D880DFE804F04F
:104CF00008124F53D6D6D6D6D6D6A3A8AAB4C40087
:104D00006C4B4FF00072DA61FFF77EFDFF3818BF81
:104D10000120C4E049200021FFF708FE044608B145
:104D20000120BCE068461021FFF798FD0028F7D06D
:104D30009DF800309DF809009B09012B9DF8083073
:104D400005D1013000EB03239BB29B021CE09DF8D0
:104D50000710890001EB93135A1C9DF806309DF84B
:104D6000051003F0030302EB83239DF80A2001F0F2
:104D70000F0101EBD212911C00F0030201EB420281
:104D8000D2B29BB2093A93402B60204687E04FF4A1
:104D900000732B8052E0494E337803F0040303F094
:104DA000FF01DBB1CD200021FFF7C0FD0028B7D106
:104DB000FF20FFF71DFD68461021FFF74FFD00287B
:104DC000AED03024FF20FFF713FD601E10F0FF046B
:104DD000F8D19DF80A2010231209D4E74920FFF7E3
:104DE000A5FD044600289BD168461021FFF736FD3B
:104DF000002895D031789DF80A2001F0020101F0D9
:104E0000FF009DF80B3051B102F03F02DB0903EBCC
:104E100042039DF80D2001339209013AB3E7C2F332
:104E2000840103F003045A0902EBC402531C01FB82
:104E300003332B6033E0214B1B782B7000202EE0D6
:104E4000492000E04A200021FFF770FD00287FF490
:104E500067AF284610211BE07A200021FFF766FD8E
:104E600000287FF45DAF2C1DFF20FFF7C1FC05F883
:104E7000010BA542F8D1E1E7CD200021FFF756FD57
:104E800000287FF44DAFFF20FFF7B2FC28464021F9
:104E9000FFF7E4FCB0FA80F0400900E00420054B85
:104EA0004FF000729A6102E0002000E0032004B09D
:104EB00070BD00BF20C0092006C0072010C4072015
:104EC000054B1B78253BDBB2032B9ABF034A52F8F4
:104ED00023000020704700BF14C40720345602008E
:104EE0001B4B2DE9F0411D880646B5F5007F0F46A6
:104EF000144602D1084611460AE0B5F5807F09D173
:104F0000084611462A46B04707F5807004F58071BF
:104F10002A4617E0B5F5047F05D1510A38468902C3
:104F20004FF400720EE0B5F5847F0FD1140A0846E5
:104F30004FF480726102B047611C07F5807049022E
:104F40004FF480723346BDE8F0411847BDE8F08168
:104F500012C40720034610B500295DDD07291A7821
:104F60002E4C2FDDA2605A780839A2609A78A26090
:104F7000DA78A2601A79A2605A79A2609A79A2605E
:104F800003F10802DB79A360244B9C696407FBD51D
:104F90009C6804709C6844709C6884709B68C370B3
:104FA0001E4BDC68E406FBD49C68083000F8044C17
:104FB0009C6800F8034C9C6800F8024C9B6800F861
:104FC000013C1BE003291BDDA2605A780439A26072
:104FD0009A78A2601A1DDB78A360104BDC68E406A7
:104FE000FBD49C68043000F8044C9C6800F8034C27
:104FF0009C6800F8024C9B6800F8013C1346ABE744
:105000000133A2600139E268D206FCD4034A0130C0
:10501000926800F8012C9FE710BD00BF000003401C
:1050200007B50B0C8DF804008DF805308DF80710CE
:105030000B0A01A804218DF80630FFF78BFF03B09F
:105040005DF804FBF7B5164607460E4C40250323D2
:10505000E5618DF804300B0C8DF805308DF80710E4
:105060000B0A01A804218DF80630FFF773FF3846BC
:105070003146002204F088F8A561A561A56103B05E
:10508000F0BD00BF00C009200D4B4022DA610D4B7E
:10509000D7229A60DA68D106FCD40A4B9B68094B88
:1050A000FF229A60DA68D206FCD4064B98680306A1
:1050B000F5D5034B40229A61C0B29A619A6170475C
:1050C00000C0092000000340F7B5FFF7DDFF1F4CCB
:1050D000002323801E4B1F4E40271A889B78F761C0
:1050E0000546032101A8ADF804208DF80630FFF72E
:1050F00031FF9DF805209DF806301F2AB761B76182
:10510000B7611CD1A3F12502032A18D8124A252B16
:10511000137005F0010006D1002814BF4FF480730E
:105120004FF4847305E0002814BF4FF400734FF46C
:1051300004732380FFF7C4FE084B400A18602088E0
:10514000B0FA80F0400903B0F0BD00BF12C40720E0
:105150002A56020000C0092014C4072018C40720E2
:105160002DE9F0418B1817460E4A013B1268804624
:10517000934214D84D024446FFF786FF0026C8EB41
:105180000502BE42224407DA21460748FFF7A8FE7F
:1051900004F500740136F2E70020BDE8F08101203B
:1051A000BDE8F08118C40720455001002DE9F04109
:1051B0008B1817460D4A013B12688046934212D85D
:1051C00004464D020026C8EB0502BE42224407DA1F
:1051D00021460748FFF784FE04F500740136F2E724
:1051E0000020BDE8F0810120BDE8F08118C407204F
:1051F000D552010010B50C46072805D8DFE800F0AD
:1052000006090E1214141414042010BDFFF73CFFFD
:105210000AE0FFF755FE400A206005E04FF40073F6
:105220000B8001E001230B60002010BD70B590B031
:1052300003466A466E4600F14005144618685968F0
:10524000083303C4AB422246F7D1084D4024EC6139
:105250009B200021FFF7E4FE30462146FFF77AFE4F
:10526000AC61AC61AC6110B070BD00BF00C0092082
:1052700070B50646074D402477200021EC61FFF70A
:10528000CFFE30462146FFF765FEAC61AC61AC61F4
:1052900070BD00BF00C00920064B10B51C8834F05B
:1052A0001F0404D0FFF70CFEB0FBF4F010BD204645
:1052B00010BD00BF12C40720014B1888704700BF03
:1052C00012C40720024B1878003018BF0120704725
:1052D00012C407202DE9F7434FF0FF330F469046E5
:1052E00001938146FFF7D0FEFFF7ECFF0646B0B111
:1052F000194C4025194BE5611B880320B3F5847FC9
:105300000CBF4FF480714FF400713943FFF788FEF2
:1053100001A80421FFF71EFEA561A561A5610E4C41
:10532000402382203946E361FFF77AFE4846414632
:10533000012203F029FF3EB1019B02A8013340F88E
:10534000043D0421FFF706FE4023A361A361A3618E
:1053500003B0BDE8F08300BF00C0092012C40720DD
:10536000F7B5124B07461B88B3F5847F4FF0FF3328
:105370000CBF4FF480764FF400760193FFF7A2FF45
:1053800070B10B4C4025032046EA4721E561FFF749
:1053900047FE01A80421FFF7DDFDA561A561A56118
:1053A0000198431C08BF002003B0F0BD12C40720C1
:1053B00000C0092037B5074B074C186840250190FD
:1053C0000421E56101A8FFF7C5FDA561A561A561FF
:1053D00003B030BD2D56020000C009201FB501A842
:1053E00003F0F6FD9DF809309DF8082003F00F0347
:1053F00002F01F025B0543EA02419DF806309DF86A
:10540000040003F01F0341EAC3229DF80530C0F3F6
:10541000440003F03F0342EA4313BDF80A20184357
:10542000520602F10842104305B05DF804FB30B5A6
:1054300004460D1F131B0344032B04D955F8043FE6
:1054400044F8043BF6E722F00303194402F0030298
:10545000013B18440A44914204D011F8013B00F882
:10546000013FF8E730BD0244904202D000F8011B32
:10547000FAE7704700F10B010023DA0142EA530317
:1054800010F8012B1344884203F0FF03F5D11846AE
:105490007047026810B50446BAB11346184613F8AF
:1054A000011B1F2902D93A29F8D101E0002010BDC3
:1054B000114611F8013B884207D1303BD9B201298E
:1054C00003D802321846226010BD4FF0FF3010BDE5
:1054D00003692DE9F04101F109020D4653B3416919
:1054E00000244E1E16F8013F0134202B18D0052B46
:1054F00047D0092C02D12E2717700132A3F14107A2
:10550000192F0BD8082C0F7B8CBF4FF0100E4FF0CB
:10551000080E1EEA070F1CBF2033DBB213700132E6
:105520000B2CDFD1CB7A2B72CB692B600B8BAB8032
:10553000CB8AEB8000241470AE693EB303690BB9CB
:1055400000241AE0EB69002BFAD04FF6FF73028CAF
:105550009A42F5D0D0F81C80771E38F8140060B15C
:105560000021FFF75BF80028EAD0EB69013B9C4281
:10557000E6D2013407F8010FEFE700233355BDE809
:10558000F081092C4FF0E503C8D1B4E7BDE8F08104
:10559000F8B5037904460BB90020F8BD056B00F19E
:1055A0003407394640782A460123FFF7CAF890B9F4
:1055B000636AE269EB1A93422071EDD2E678012E1C
:1055C000EAD9E36960781D4439462A460123FFF78A
:1055D000B8F8013EF3E70120F8BD0000F8B5044635
:1055E000FFF7D6FF05468DBB2378032B26D16679BE
:1055F000012E23D104F13407384629464FF40072B6
:10560000FFF731FF4AF65523A4F83232104B226AD5
:10561000636303F1FF5303F500532033C4F81832DA
:1056200063690132C4F81C3223692263C4F8203252
:10563000607839463346FFF784F865710021607859
:105640000A46FFF79AF8003018BF0120F8BD00BFE6
:1056500052526141036B70B5994205460E4610D017
:10566000FFF796FF044608B101240BE0687805F1C6
:10567000340132460123FFF748F80028F4D12E63A5
:1056800000E00024204670BD002310B503714FF0E8
:10569000FF3303630446FFF7DDFFA0B94AF6552345
:1056A000B4F832229A4210D1D4F86A30084A23F072
:1056B0007F4393420AD0D4F8860020F07F40801ABE
:1056C00018BF012010BD032010BD022010BD00BF77
:1056D00046415400F0B50023036085B007460846F4
:1056E0001546FFF7D6FE061EC0F2F2807E4B53F839
:1056F0002640002C00F0EE80E068FEF7C9FF00288D
:1057000000F0EA803C60237883B16078FEF7F5FF13
:10571000C1070BD4002D00F0D98000F0040303F082
:10572000FF00002B00F0DD800A20DAE00023F0B259
:1057300023706070FEF7CEFFC20700F1CF800DB17D
:105740004307F1D420460021FFF79EFF01281CD11A
:105750002146002291F8F6310BB1D1F8FA314DF81B
:1057600022300132042A01F11001F3D100265DF844
:1057700026502DB120462946FFF786FF08B90BE0D9
:1057800002200136042EF2D100E00025032800F0AB
:10579000A78008B10D20A4E0B4F83F30B3F5007F36
:1057A000F8D1B4F84A0000B9A06D94F844E0E06183
:1057B0000EF1FF33012B84F803E0EBD894F841306D
:1057C000A370002BE6D05A1E1A42E3D1B4F845C0AC
:1057D0001CF00F0FA4F808C0DCD1B4F8472002B9C0
:1057E000626DB4F842100029D4D00EFB00FE01EB2C
:1057F0001C177744BA42CDD3D21BB2FBF3F3002B74
:10580000C8D040F6F572934206D94FF6F576B3420A
:105810008CBF0326022600E00126023329442F44D0
:10582000032EA36125626162E76206D1BCF1000F1D
:10583000B0D1226E9B00A26210E0BCF1000FA9D093
:10584000022E4FEA43020CBF1346D218714418BF10
:1058500003F00103A16218BF03EB520303F2FF132D
:10586000B0EB532F96D34FF0FF3363612361032EC8
:105870004FF08003637122D1B4F86430012B1ED144
:105880002046691CFFF7E6FEC8B94AF65523B4F86E
:10589000322260719A4212D1626B144B9A420ED13D
:1058A00003F1FF53D4F8182203F5005320339A4232
:1058B00001BFD4F81C326361D4F8203223610C4A52
:1058C0002670138801339BB21380E380002008E028
:1058D0000B2006E00C2004E00F2002E0032000E093
:1058E000012005B0F0BD00BF20C407205252614125
:1058F0001CC4072010B50446A8B103689BB11A78F0
:105900008AB1D988828891420DD1D868FEF7C0FE4D
:1059100058B123685878FEF7F0FE10F0010F14BF5D
:105920000320002010BD092010BD0F2010BD50B174
:10593000A1F10B03012B06D9092904D00F2902D0AC
:10594000C068FEF7B8BE704783690239023B9942CE
:105950003DBF8278C36A02FB0130002070470129F5
:10596000F8B507460C464BD98369994248D203786B
:10597000022B29D0032B34D0012B41D101EB51064E
:10598000416A01EB5621FFF765FE10B14FF0FF3081
:10599000F8BD796AC6F3080301363B44384601EB8B
:1059A000562193F83450FFF755FE0028EED1C6F388
:1059B00008063E4496F83400E30745EA00204CBF51
:1059C0000009C0F30B00F8BD416A01EB1421FFF799
:1059D00041FE0028DAD1630003F4FF73FE18B08E95
:1059E000F8BD416A01EBD411FFF734FE0028CDD198
:1059F000A40004F4FE743C44606B20F07040F8BDD9
:105A00000120F8BDF8B5054684680E46012CE980F2
:105A100001D10220F8BD03689A699442F9D254B9C1
:105A20001A78032A01D19A6A22B91A899642F0D2C9
:105A3000986A17E0144621469F783F01BE420DD375
:105A40002868FFF78CFF431C01461AD00128E0D9D3
:105A50002B689B699842DCD2F61BEFE728680C465E
:105A6000FFF772FFEC600028D3D02B6800EB161014
:105A700006F00F0603EB4616343628616E610020EF
:105A8000F8BD0120F8BD0129F8B505460C461646BB
:105A90005FD9836999425CD20378022B38D0032BFB
:105AA00042D0012B51D101EB5107416A01EB572143
:105AB000FFF7D0FD002849D1C7F3080314F0010413
:105AC0002B4418BF93F83410F2B21EBF01F00F013F
:105AD00041EA0212D2B2696A83F834200137012305
